:020000040800F2
:1000000000A000203D490008D9470008DB47000850
:10001000DD470008DF470008E14700080000000056
:10002000000000000000000000000000E34700089E
:10003000E547000800000000E7470008E94700081E
:100040008D4900088D4900088D4900088D49000838
:100050008D4900088D4900088D490008F5470008C2
:10006000FF47000809480008134800088D490008A8
:100070008D4900088D4900088D4900088D49000808
:100080008D4900088D4900088D4900088D490008F8
:100090008D4900081D4800088D4900082D480008BA
:1000A0008D4900088D4900088D4900088D490008D8
:1000B0008D4900088D4900088D4900088D490008C8
:1000C0008D4900088D4900088D4900088D490008B8
:1000D0008D4900088D4900088D4900088D490008A8
:1000E0004B4800088D4900088D4900088D490008DB
:1000F0008D4900088D4900088D4900088D49000888
:100100000000000000000000000000008D49000811
:100110008D4900088D4900085948000869480008C1
:100120008D4900088D4900088D4900088D49000857
:100130008D4900088D490008000000000000000003
:100140008D4900088D4900088D4900080000000015
:10015000000000000000000000000000000000009F
:1001600000000000000000008D4900088D490008D3
:100170008D490008000000000000000000000000A1
:08018000000000008D49000899
:1001880010B5054C237833B9044B13B10448AFF3C9
:1001980000800123237010BD7800002000000000BB
:1001A8005C5100080C4B43B10C480D4910B5AFF336
:1001B80000800C48036823B910BD0A48036833B9A6
:1001C8007047094B002BF7D0BDE810401847064B85
:1001D800002BF5D0184700BF000000005C51000854
:1001E8007C000020780000200000000081F0004121
:1001F80002E000BF83F0004330B54FEA41044FEA04
:10020800430594EA050F08BF90EA020F1FBF54EA9E
:10021800000C55EA020C7FEA645C7FEA655C00F03A
:10022800E2804FEA5454D4EB5555B8BF6D420CDD0B
:100238002C4480EA020281EA030382EA000083EA8E
:10024800010180EA020281EA0303362D88BF30BD2E
:1002580011F0004F4FEA01314FF4801C4CEA113184
:1002680002D0404261EB410113F0004F4FEA0333E3
:100278004CEA133302D0524263EB430394EA050F6E
:1002880000F0A780A4F10104D5F1200E0DDB02FADD
:100298000EFC22FA05F2801841F1000103FA0EF271
:1002A800801843FA05F359410EE0A5F120050EF137
:1002B800200E012A03FA0EFC28BF4CF0020C43FA68
:1002C80005F3C01851EBE37101F0004507D54FF075
:1002D800000EDCF1000C7EEB00006EEB0101B1F5C5
:1002E800801F1BD3B1F5001F0CD349085FEA30000B
:1002F8004FEA3C0C04F101044FEA445212F5800F16
:1003080080F09A80BCF1004F08BF5FEA500C50F1B2
:10031800000041EB045141EA050130BD5FEA4C0C95
:10032800404141EB010111F4801FA4F10104E9D11E
:1003380091F0000F04BF01460020B1FA81F308BF15
:100348002033A3F10B03B3F120020CDA0C3208DDE1
:1003580002F1140CC2F10C0201FA0CF021FA02F1BC
:100368000CE002F11402D8BFC2F1200C01FA02F12C
:1003780020FA0CFCDCBF41EA0C019040E41AA2BF51
:1003880001EB0451294330BD6FEA04041F3C1CDA19
:100398000C340EDC04F11404C4F1200220FA04F039
:1003A80001FA02F340EA030021FA04F345EA0301E3
:1003B80030BDC4F10C04C4F1200220FA02F001FAA5
:1003C80004F340EA0300294630BD21FA04F0294627
:1003D80030BD94F0000F83F4801306BF81F48011C0
:1003E8000134013D4EE77FEA645C18BF7FEA655C33
:1003F80029D094EA050F08BF90EA020F05D054EA05
:10040800000C04BF1946104630BD91EA030F1EBF09
:100418000021002030BD5FEA545C05D1400049410D
:1004280028BF41F0004130BD14F580043CBF01F500
:10043800801130BD01F0004545F0FE4141F47001E6
:100448004FF0000030BD7FEA645C1ABF19461046C1
:100458007FEA655C1CBF0B46024650EA013406BFC2
:1004680052EA033591EA030F41F4002130BD00BF81
:1004780090F0000F04BF0021704730B54FF480643E
:1004880004F132044FF000054FF0000150E700BFBF
:1004980090F0000F04BF0021704730B54FF480641E
:1004A80004F1320410F0004548BF40424FF000010B
:1004B8003EE700BF42004FEAE2014FEA31014FEA4E
:1004C80002701FBF12F07F4393F07F4F81F060519D
:1004D800704792F0000F14BF93F07F4F704730B50C
:1004E8004FF4607401F0004521F0004120E700BF9F
:1004F80050EA010208BF704730B54FF000050AE026
:1005080050EA010208BF704730B511F0004502D526
:10051800404261EB41014FF4806404F132045FEA28
:10052800915C3FF4DCAE4FF003025FEADC0C18BFCD
:1005380003325FEADC0C18BF033202EBDC02C2F1C3
:10054800200300FA03FC20FA02F001FA03FE40EA55
:100558000E0021FA02F11444C1E600BF70B54FF055
:10056800FF0C4CF4E06C1CEA11541DBF1CEA135537
:1005780094EA0C0F95EA0C0F00F0DEF82C4481EA9F
:10058800030621EA4C5123EA4C5350EA013518BFBF
:1005980052EA033541F4801143F4801338D0A0FBAC
:1005A80002CE4FF00005E1FB02E506F00042E0FB59
:1005B80003E54FF00006E1FB03569CF0000F18BF5F
:1005C8004EF0010EA4F1FF04B6F5007F64F5407407
:1005D80004D25FEA4E0E6D4146EB060642EAC6219A
:1005E80041EA55514FEAC52040EA5E504FEACE2E07
:1005F800B4F1FD0C88BFBCF5E06F1ED8BEF1004F0A
:1006080008BF5FEA500E50F1000041EB045170BD85
:1006180006F0004646EA010140EA020081EA0301C9
:10062800B4EB5C04C2BFD4EB0C0541EA045170BDC5
:1006380041F480114FF0000E013C00F3AB8014F13F
:10064800360FDEBF002001F0004170BDC4F1000488
:10065800203C35DA0C341BDC04F11404C4F1200509
:1006680000FA05F320FA04F001FA05F240EA020064
:1006780001F0004221F0004110EBD37021FA04F69A
:1006880042EB06015EEA430E08BF20EAD37070BD54
:10069800C4F10C04C4F1200500FA04F320FA05F0B3
:1006A80001FA04F240EA020001F0004110EBD370B5
:1006B80041F100015EEA430E08BF20EAD37070BD25
:1006C800C4F1200500FA05F24EEA020E20FA04F3FE
:1006D80001FA05F243EA020321FA04F001F00041AD
:1006E80021FA04F220EA020000EBD3705EEA430E1E
:1006F80008BF20EAD37070BD94F0000F0FD101F04D
:100708000046400041EB010111F4801F08BF013C85
:10071800F7D041EA060195F0000F18BF704703F0C3
:100728000046520043EB030313F4801F08BF013D4A
:10073800F7D043EA0603704794EA0C0F0CEA135506
:1007480018BF95EA0C0F0CD050EA410618BF52EAC0
:100758004306D1D181EA030101F000414FF00000C6
:1007680070BD50EA410606BF1046194652EA4306D4
:1007780019D094EA0C0F02D150EA013613D195EA48
:100788000C0F05D152EA03361CBF104619460AD190
:1007980081EA030101F0004141F0FE4141F470019A
:1007A8004FF0000070BD41F0FE4141F4780170BD8A
:1007B80070B54FF0FF0C4CF4E06C1CEA11541DBFEF
:1007C8001CEA135594EA0C0F95EA0C0F00F0A7F8F1
:1007D800A4EB050481EA030E52EA03354FEA01311E
:1007E80000F088804FEA03334FF0805545EA131331
:1007F80043EA12634FEA022245EA111545EA1065F9
:100808004FEA00260EF000419D4208BF964244F18F
:10081800FD0404F5407402D25B084FEA3202B61AAE
:1008280065EB03055B084FEA32024FF480104FF482
:10083800002CB6EB020E75EB030E22BFB61A7546F6
:1008480040EA0C005B084FEA3202B6EB020E75EB89
:10085800030E22BFB61A754640EA5C005B084FEAF1
:100868003202B6EB020E75EB030E22BFB61A7546BE
:1008780040EA9C005B084FEA3202B6EB020E75EBC9
:10088800030E22BFB61A754640EADC0055EA060E8A
:1008980018D04FEA051545EA16754FEA06164FEACD
:1008A800C30343EA52734FEAC2025FEA1C1CC0D179
:1008B80011F4801F0BD141EA00014FF000004FF006
:1008C800004CB6E711F4801F04BF01430020B4F1C7
:1008D800FD0C88BFBCF5E06F3FF6AFAEB5EB030C7F
:1008E80004BFB6EB020C5FEA500C50F1000041EB7C
:1008F800045170BD0EF0004E4EEA113114EB5C0449
:10090800C2BFD4EB0C0541EA045170BD41F480111B
:100918004FF0000E013C90E645EA060E8DE60CEA23
:10092800135594EA0C0F08BF95EA0C0F3FF43BAF40
:1009380094EA0C0F0AD150EA01347FF434AF95EAF7
:100948000C0F7FF425AF104619462CE795EA0C0FDB
:1009580006D152EA03353FF4FDAE1046194622E7A8
:1009680050EA410618BF52EA43067FF4C5AE50EA82
:1009780041047FF40DAF52EA43057FF4EBAE12E772
:100988004FEA4102B2F1E04324BFB3F5001CDCF1A9
:10099800FE5C0DD901F0004C4FEAC0024CEA5070E1
:1009A800B2F1004F40EB830008BF20F00100704710
:1009B80011F0804F21D113F13872BCBF01F0004013
:1009C800704741F480114FEA5252C2F11802C2F145
:1009D800200C10FA0CF320FA02F018BF40F00100C6
:1009E8004FEAC1234FEAD32303FA0CFC40EA0C0078
:1009F80023FA02F34FEA4303CCE77FEA625307D1B5
:100A080050EA01331EBF4FF0FE4040F440007047EB
:100A180001F0004040F0FE4040F40000704700BF85
:100A280053B94AB9002908BF00281CBF4FF0FF314D
:100A38004FF0FF3000F07AB9ADF1080C6DE904CE43
:100A480000F006F8DDF804E0DDE9022304B07047A1
:100A58002DE9F0478C460D460446089E002B51D1DF
:100A68008A4217466DD9B2FA82FEBEF1000F0BD04A
:100A7800CEF1200C01FA0EF520FA0CFC02FA0EF762
:100A88004CEA050C00FA0EF44FEA174A250CBCFB99
:100A9800FAF81FFA87F90AFB18CC45EA0C4508FB57
:100AA80009F3AB420AD9ED1908F1FF3280F023812E
:100AB800AB4240F22081A8F102083D44ED1AA4B2ED
:100AC800B5FBFAF00AFB105544EA054400FB09F9A6
:100AD800A14509D9E41900F1FF3380F00A81A14545
:100AE80040F2078102383C44A4EB090440EA08407C
:100AF8000021002E61D024FA0EF4002334607360C4
:100B0800BDE8F0878B4207D9002E54D0002186E833
:100B180021000846BDE8F087B3FA83F1002940F0C8
:100B28008E80AB4202D3824200F2FA80841A65EBCF
:100B380003050120AC46002E3FD086E81010BDE822
:100B4800F08712B90127B7FBF2F7B7FA87FEBEF1B3
:100B5800000F34D1EB1B3A0C1FFA87FC0121B3FBC1
:100B6800F2F8250C02FB183345EA03450CFB08F3A1
:100B7800AB4207D9ED1908F1FF3002D2AB4200F2BF
:100B8800D1808046ED1AA3B2B5FBF2F002FB1055F6
:100B980043EA05440CFB00FCA44507D9E41900F11D
:100BA800FF3302D2A44500F2B8801846A4EB0C0427
:100BB80040EA08409DE731463046BDE8F087CEF16F
:100BC800200405FA0EF307FA0EF720FA04F83A0C97
:100BD80025FA04F448EA0308B4FBF2F14FEA184591
:100BE80002FB11441FFA87FC45EA044501FB0CF39C
:100BF800AB4200FA0EF409D9ED1901F1FF3080F08B
:100C08008A80AB4240F2878002393D44EB1A1FFAD2
:100C180088F5B3FBF2F002FB103345EA034500FB0D
:100C28000CF3AB4207D9ED1900F1FF386FD2AB4294
:100C38006DD902383D44EB1A40EA01418FE7C1F112
:100C4800200722FA07F88B4005FA01F448EA030363
:100C580020FA07FE4FEA134CFD404EEA040EB5FB9E
:100C6800FCF94FEA1E440CFB19551FFA83F844EAB5
:100C7800054509FB08F4AC4202FA01F200FA01FA50
:100C880008D9ED1809F1FF3043D2AC4241D9A9F196
:100C980002091D442D1B1FFA8EFEB5FBFCF00CFB50
:100CA80010554EEA054400FB08F8A04507D9E4189A
:100CB80000F1FF3529D2A04527D902381C4440EA63
:100CC8000940A4EB0804A0FB02894C45C6464D46E2
:100CD80015D312D056B1BAEB0E0364EB050404FA2F
:100CE80007F7CB401F43CC40376074600021BDE854
:100CF800F0871846F8E69046E0E6C245EAD2B8EB37
:100D0800020E69EB03050138E4E72846D7E74046B9
:100D180091E78146BEE7014678E702383C4445E75B
:100D2800084608E7A8F102083D442BE7704700BFD2
:100D3800034613F8012B002AFBD1181A0138704713
:100D480010B504460E4B18784FF47A73B3FBF0F3E2
:100D58000C4A1068B0FBF3F000F05EFC68B90F2C89
:100D680001D9012010BD002221464FF0FF3000F0CC
:100D780015FC034B5C60002010BD012010BD00BFB6
:100D8800040000200C00002008B5074A136843F04F
:100D980010031360032000F0EFFB0020FFF7D0FFE3
:100DA80003F03CFB002008BD00200240034A116804
:100DB800034B1B780B441360704700BF30050020BD
:100DC80004000020014B1868704700BF3005002060
:100DD800002800F0A18038B5044690F82030D3B13F
:100DE8002268136823F002031360FFF7EBFF054640
:100DF80023685A6812F0020F10D0FFF7E3FF401B78
:100E08000A28F5D9636A43F400336362052384F83A
:100E18002030012038BD03F019FBE1E71A6842F0E1
:100E280001021A60FFF7CEFF054623685A6812F0E0
:100E3800010F0DD1FFF7C6FF401B0A28F5D9636AD9
:100E480043F400336362052384F82030012038BD61
:100E5800227E012A3DD01A6822F080021A60637E41
:100E6800012B3BD02268136823F040031360A37E54
:100E7800012B39D02268136823F020031360E37E26
:100E8800012B37D02268136843F010031360237FC7
:100E9800012B35D02268136823F008031360637FA1
:100EA800012B33D02268136823F0040313602168F0
:100EB800A368E268134322691343626913436268B3
:100EC800013A1343CB6100206062012384F820308B
:100ED80038BD1A6842F080021A60C0E722681368B9
:100EE80043F040031360C2E72268136843F020030D
:100EF8001360C4E72268136823F010031360C6E781
:100F08002268136843F008031360C8E7226813686F
:100F180043F004031360CAE701207047026890F8A1
:100F28002030013BDBB2012B05D9436A43F480230F
:100F380043620120704770B4D2F8003243F00103D5
:100F4800C2F800324B6903F01F03012000FA03F3D3
:100F5800D2F81C42D8430440C2F81C42CC69ACB950
:100F6800D2F80C420440C2F80C424C69CE688D8815
:100F780045EA0645483442F834504C698E680D8875
:100F880045EA0645483402EBC4046560CC69012C87
:100F980019D08C6974BBD2F804420440C2F80442E8
:100FA8000C696CBBD2F814422040C2F81402096ADA
:100FB80001292BD0D2F8003223F00103C2F8003205
:100FC800002070BC7047D2F80C421C43C2F80C4297
:100FD8004C690E688D8845EA0645483442F8345015
:100FE8004C698E688D8945EA0645483402EBC4048D
:100FF8006560CEE7D2F804421C43C2F80442CFE74A
:10100800D2F814021843C2F81402D0E7D2F81C121E
:101018000B43C2F81C32CDE738B590F82030DBB26C
:10102800012B05D0436A43F400234362012038BDF5
:101038000446022380F820300268136823F0010375
:101048001360FFF7BFFE054623685B6813F0010FC6
:101058000DD0FFF7B7FE401B0A28F5D9636A43F4A1
:1010680000336362052384F82030012038BD002056
:10107800606238BD70B490F820400568AD68013CE6
:10108800E4B2012C06D9436A43F480234362012069
:1010980070BC704715F0E05F5BD0C5F30165022DA9
:1010A8003ED80124AC401C608B68002B3ED10468FC
:1010B8000E68CB6843EA465605F118031B01E65053
:1010C80003680C6905F1180603EB06135C600B7DD9
:1010D800012B36D00468D17993791B0443EA016364
:1010E800517943EA012311790B432E013444C4F8A2
:1010F8008C310168D47893781B0443EA04635478EC
:1011080043EA0423127813433144C1F88831026852
:1011180018352D01535943F0010353510020B7E707
:10112800436A43F4000343620120B1E704684E6850
:1011380043EAC603CE68334305F118063601A351C6
:10114800BEE7036803EB0613596841F480715960E0
:10115800C0E7436A43F400134362012098E790F81C
:101168002030013BDBB2012B05D9436A43F48023CD
:1011780043620120704711F0010F04D002689368A0
:1011880043F08003936011F0020F04D00268936863
:1011980043F40043936011F0040F06D0026893688B
:1011A80043F400039360002070470020704730B478
:1011B80090F82040013CE4B2012C06D9436A43F47C
:1011C80080234362012030BC704700296FD1046836
:1011D800E46814F0030F64D0056801F11B042401CE
:1011E8002C5904F004049460002C6BD1056801F1BB
:1011F8001B0424012C59640D1460056801F11B04BB
:1012080024012D59C5F34005D560056825446D684E
:1012180005F00F051561056825446D68C5F30725B8
:10122800956105682C446468240C546104680A01BB
:101238001444D4F8B8411C7004681444D4F8B84174
:10124800C4F307245C7004681444D4F8B841C4F3A8
:1012580007449C7004681444D4F8B841240EDC7028
:1012680004681444D4F8BC411C7104681444D4F8CC
:10127800BC41C4F307245C7104681444D4F8BC412D
:10128800C4F307449C7104682244D2F8BC21120EAE
:10129800DA71F9B90268D36843F02003D3600020FB
:1012A80091E7436A43F40013436201208BE7046823
:1012B800246914F0030F8FD1436A43F40013436287
:1012C800012080E7056801F11B0424012C59E4087A
:1012D800546092E70268136943F020031361002009
:1012E80071E790F82030013BDBB2012B05D9436A46
:1012F80043F480234362012070470268536919430D
:1013080051610020704770477047704770477047B9
:1013180070477047704770477047704770472DE9AE
:10132800F84F054603685C695F689E68D3F80C90BF
:10133800D3F81080D3F818A014F0010F5AD016F083
:10134800010F17D001229A6016F0020F08D116F08B
:10135800040F30D116F0080F07D04FF4805B0BE074
:10136800FFF7D1FF4FF0000B06E0FFF7CFFF4FF07C
:10137800000B01E04FF0000B16F4807F0BD02B68B8
:101388004FF480729A6016F4007F17D116F4806FBC
:1013980018D04BF4005B16F4803F2DD02B684FF427
:1013A80080329A6016F4003F16D116F4802F17D0B9
:1013B8004BF4004B20E04FF4006BDDE72846FFF7C5
:1013C800A3FFE8E716F4006F02D04BF4804BE2E786
:1013D8002846FFF79CFFDEE72846FFF796FF0BE05D
:1013E80016F4002F02D04BF4803B05E02846FFF7A7
:1013F8008FFF01E04FF0000B14F0080F07D019F031
:10140800100F04D04BF4007B2B681022DA6014F024
:10141800040F02D019F0080F60D114F0020F04D0A5
:101428002B68DB6813F0030F5FD114F0400F07D06F
:1014380018F0100F04D04BF4806B2B6810221A613F
:1014480014F0200F02D018F0080F52D114F0100F2A
:1014580004D02B681B6913F0030F51D114F4003F1B
:1014680002D017F0100F4FD114F4803F02D017F0BC
:10147800080F50D114F4004F67D017F0040F61D053
:1014880014F4807F04D01AF0010F01D04BF0010B47
:1014980014F4007F04D01AF0020F01D04BF0020BB5
:1014A80014F4806F04D01AF0040F01D04BF0040B31
:1014B80014F4006F46D01AF0700A43D0BAF1300F16
:1014C80048D02FD9BAF1500F47D0BAF1600F47D0A2
:1014D800BAF1400F31D14BF0400B2EE02B680822B7
:1014E800DA602846FFF716FF97E72846FFF711FF4F
:1014F8009BE72B6808221A612846FFF70CFFA5E72F
:10150800284602F02BFEA9E72B6810225A602846CD
:10151800FFF702FFA8E72B6808225A602846FFF762
:10152800FCFEA7E7BAF1100F05D0BAF1200F04D1DD
:101538004BF0100B01E04BF0080B2A68936923F07D
:10154800700393612B6804225A60BBF1000F0AD123
:10155800BDE8F88F4BF0200BEFE74BF0800BECE782
:101568004BF4807BE9E76B6A4BEA03036B6228461E
:10157800FFF7D4FEECE70000074AD36823F4E063E2
:101588001B041B0C000200F4E060184340F0BF602D
:1015980040F40030D060704700ED00E030B4164BE6
:1015A800DB68C3F30223C3F10704042C28BF042417
:1015B8001D1D062D17D9033B012505FA04F4013C2E
:1015C8002140994005FA03F3013B134019430028D1
:1015D8000BDB0901C9B200F1604000F5614080F8F9
:1015E800001330BC70470023E6E700F00F00090144
:1015F800C9B2024B1954F4E700ED00E014ED00E025
:10160800420900F01F00012303FA00F0014B43F8E0
:101618002200704700E100E00138B0F1807F0AD273
:10162800064B5860F021064A82F823100020986083
:1016380007221A6070470120704700BF10E000E0E1
:1016480000ED00E008B502F09DFC08BDF0B583B0E0
:1016580000238CE0DE08083650F8264003F0070E19
:101668004FEA8E0E0F2707FA0EF724EA07040F69D0
:1016780007FA0EF73C4340F8264087E08668264084
:10168800CF6807FA0EF73E438660466826EA0505E6
:101698004E68C6F300169E4035434560C5682C4029
:1016A8008D6805FA0EF52C43C4604C6814F0805F11
:1016B8005CD04A4CA56945F00105A561A46904F010
:1016C80001040194019C9D08AE1C454C54F8264029
:1016D80003F00306B6000F27B74024EA0704B0F169
:1016E800904F70D03F4FB8426FD007F58067B8422F
:1016F8006DD007F58067B8426BD007F58067B842B0
:101708005FD0052707FA06F634430235344E46F80B
:101718002540354C2568D44305EA04064F6817F47C
:10172800803F01D042EA05062F4D2E606D6804EA1D
:1017380005064F6817F4003F01D042EA05062A4D16
:101748006E60AD6804EA05064F6817F4801F01D083
:1017580042EA0506244DAE60ED682C404E6816F44A
:10176800001F01D042EA05041F4AD46001330A6809
:1017780032FA03F42FD001259D402A40F6D04C6858
:10178800022C3FF467AF122C3FF464AF06684FEAAF
:10179800430E032404FA0EF4E44326404F6807F08E
:1017A800030707FA0EF73E4306604E68771E012FBF
:1017B8007FF664AF112E3FF461AF122E7FF46EAF47
:1017C8005CE704279EE700279CE701279AE70227A2
:1017D80098E7032796E703B0F0BD00BF001002406A
:1017E8000000014000040048000401400369194258
:1017F80001D100207047012070470AB98162704703
:101808008161704708B5054B5B69034200D108BD8B
:10181800024B586102F074FBF9E700BF0004014075
:10182800002800F0F38270B582B00446036813F014
:10183800010F63D0B44B5B6803F00C03042B46D054
:10184800B14B5B6803F00C03082B3BD06368B3F51E
:10185800803F00F08E80002B40F0918003F18043A0
:1018680003F504331A6822F480321A601A6822F4E5
:1018780080221A60A44AD36A23F00F03A1680B439D
:10188800D3626368002B00F09480FFF79BFA05464B
:101898004FF4003393FAA3F39B4B19684FF40033CA
:1018A80093FAA3F3B3FA83F303F01F03012202FAB6
:1018B80003F3194222D1FFF785FA401B6428E7D9C0
:1018C8000320B2E2904B5B6813F4803FBED04FF424
:1018D800003393FAA3F38C4B19684FF4003393FA4F
:1018E800A3F3B3FA83F303F01F03012202FA03F30D
:1018F800194203D06368002B00F08A82236813F032
:10190800020F00F09C80804B5B6813F00C0F72D0C4
:101918007D4B5B6803F00C03082B67D02369002B11
:1019280000F0CB80012292FAA2F3B3FA83F303F119
:10193800845303F584139B001A60FFF743FA0546A6
:10194800022393FAA3F3704B1968022393FAA3F3C3
:10195800B3FA83F303F01F03012202FA03F31942D7
:1019680040F09C80FFF72EFA401B0228E8D903209C
:101978005BE2654A136843F4803313607AE7B3F592
:10198800A02F09D0604B1A6822F480321A601A68B6
:1019980022F480221A606DE703F18043A3F53C33FB
:1019A8001A6842F480221A601A6842F480321A6077
:1019B80060E7FFF707FA05464FF4003393FAA3F3FD
:1019C800514B19684FF4003393FAA3F3B3FA83F336
:1019D80003F01F03012202FA03F319428ED0FFF726
:1019E800F1F9401B6428E7D903201EE2464B5B68E7
:1019F80013F4803F92D1022393FAA3F3424B196860
:101A0800022393FAA3F3B3FA83F303F01F0301222B
:101A180002FA03F3194204D02369934201D001204A
:101A280003E23948036823F0F8036169F82292FA5F
:101A3800A2F2B2FA82F201FA02F2134303602368B7
:101A480013F0080F00F08C80A369002B60D00121EF
:101A580091FAA1F2B2FA82F22C4B13449B0019605E
:101A6800FFF7B0F90546022393FAA3F293FAA3F21B
:101A780093FAA3F2244A516A93FAA3F3B3FA83F3CD
:101A880003F01F03012202FA03F3194268D1FFF79A
:101A980099F9401B0228E6D90320C6E11A480368D1
:101AA80023F0F8036169F82292FAA2F2B2FA82F2FC
:101AB80001FA02F213430360C1E7012393FAA3F387
:101AC800B3FA83F303F1845303F584139B000022D4
:101AD8001A60FFF777F90546022393FAA3F30A4B36
:101AE8001968022393FAA3F3B3FA83F303F01F03ED
:101AF800012202FA03F31942A1D0FFF763F9401B50
:101B08000228E9D9032090E10010024020819010BA
:101B1800012292FAA2F2B2FA82F2C04B13449B005D
:101B280000221A60FFF74EF90546022393FAA3F242
:101B380093FAA3F293FAA3F2B94A516A93FAA3F378
:101B4800B3FA83F303F01F03012202FA03F31942E5
:101B580006D0FFF737F9401B0228E6D9032064E1D5
:101B6800236813F0040F00F0B380AD4BDB6913F06A
:101B7800805F26D1AA4BDA6942F08052DA61DB69CC
:101B880003F080530193019B0125A64B1B6813F4B6
:101B9800807F18D0E368012B29D073BB03F1804301
:101BA80003F504331A6A22F001021A621A6A22F053
:101BB80004021A62E368002B5DD0FFF703F90646BA
:101BC80047E00025E1E7974A136843F48073136000
:101BD800FFF7F8F80646934B1B6813F4807FD9D1BA
:101BE800FFF7F0F8801B6428F5D903201DE18C4A23
:101BF800136A43F001031362DCE7052B09D0884B15
:101C08001A6A22F001021A621A6A22F004021A629F
:101C1800D0E7834B1A6A42F004021A621A6A42F049
:101C280001021A62C6E77E4B196A022393FAA3F3EC
:101C3800B3FA83F303F01F03012202FA03F31942F4
:101C480045D1FFF7BFF8801B41F28833984200F274
:101C5800E180022393FAA3F293FAA3F3B3FA83F38E
:101C68005B0943F00203022BDDD0022393FAA3F3AE
:101C78006B4B596AD9E7FFF7A5F8064615E0684B9C
:101C8800196A022393FAA3F3B3FA83F303F01F0349
:101C9800012202FA03F3194219D0FFF793F8801BC7
:101CA80041F28833984200F2B780022393FAA3F2F4
:101CB80093FAA3F3B3FA83F35B0943F00203022B0D
:101CC800DDD0022393FAA3F3554B596AD9E7B5BB84
:101CD800E369002B00F0A880514A526802F00C0218
:101CE800082A00F0A480022B2FD04FF0807393FABB
:101CF800A3F3B3FA83F303F1845303F584139B002E
:101D080000221A60FFF75EF804464FF0007393FA5A
:101D1800A3F3434B19684FF0007393FAA3F3B3FA94
:101D280083F303F01F03012202FA03F319426BD075
:101D3800FFF748F8001B0228E7D9032075E0384A66
:101D4800D36923F08053D361C2E74FF0807393FACD
:101D5800A3F3B3FA83F303F1845303F584139B00CD
:101D680000221A60FFF72EF805464FF0007393FA29
:101D7800A3F32B4B19684FF0007393FAA3F3B3FA4C
:101D880083F303F01F03012202FA03F3194206D07A
:101D9800FFF718F8401B0228E7D9032045E020493F
:101DA8004B6823F47413626A206A024313434B603E
:101DB8004FF0807393FAA3F3B3FA83F303F18453D8
:101DC80003F584139B0001221A60FEF7FBFF04460B
:101DD8004FF0007393FAA3F3114B19684FF0007397
:101DE80093FAA3F3B3FA83F303F01F03012202FA71
:101DF80003F3194206D1FEF7E5FF001B0228E7D9D5
:101E0800032012E0002010E000200EE001207047BF
:101E180001200AE0032008E0032006E0208190105A
:101E28000010024000700040002002B070BD012088
:101E3800FBE700BF174B5B6803F00C02082A27D1A9
:101E480010B403F470114FF4701292FAA2F2B2FABD
:101E580082F221FA02F2104CA05C0E4AD26A02F019
:101E68000F020F2191FAA1F1B1FA81F1CA4022447F
:101E7800127C13F4803F05D1084B03FB00F05DF89A
:101E8800044B7047064BB3FBF2F303FB00F0F6E795
:101E980003487047001002407451000800093D00D3
:101EA80000127A00002800F0C08070B50446614B2B
:101EB8001B6803F007038B420CD25E4A136823F0B9
:101EC80007030B431360136803F00703994201D01B
:101ED800012070BD236813F0020F06D0564A5368DC
:101EE80023F0F003A068034353600D46236813F002
:101EF800010F5AD06368012B2DD0022B40D002224B
:101F080092FAA2F24C4A1068022292FAA2F2B2FAAB
:101F180082F202F01F02012101FA02F2104200F0DF
:101F2800868045494A6822F0030213434B60FEF756
:101F380049FF0646404B5B6803F00C036268B3EB4D
:101F4800820F32D0FEF73EFF801B41F28833984261
:101F5800F0D9032070BD4FF4003292FAA2F2364A4B
:101F680010684FF4003292FAA2F2B2FA82F202F04A
:101F78001F02012101FA02F21042D2D1012070BDE4
:101F88004FF0007292FAA2F22B4A10684FF00072DA
:101F980092FAA2F2B2FA82F202F01F02012101FAC9
:101FA80002F21042BDD1012070BD224B1B6803F024
:101FB80007039D420CD21F4A136823F007032B43E3
:101FC8001360136803F007039D4201D0012070BD20
:101FD800236813F0040F06D0174A536823F4E0630C
:101FE800E1680B435360236813F0080F07D0124AC7
:101FF800536823F46053216943EAC1035360FFF730
:1020080019FF0D4B5B6803F0F003F02292FAA2F27D
:10201800B2FA82F2D340094AD35CD840084B186020
:102028000020FEF78DFE002070BD012070470120C2
:1020380070BD00BF0020024000100240945100080B
:102048000C000020014B1868704700BF0C000020EE
:1020580008B5FFF7F7FF074B5B6803F4E0634FF43D
:10206800E06292FAA2F2B2FA82F2D340024AD35C58
:10207800D84008BD00100240A451000808B5FFF779
:10208800E1FF074B5B6803F460534FF4605292FA28
:10209800A2F2B2FA82F2D340024AD35CD84008BD19
:1020A80000100240A4510008F0B583B0044603684C
:1020B80013F4803F48D0934BDB6913F0805F40F006
:1020C800D580904BDA6942F08052DA61DB6903F01F
:1020D80080530193019B01258B4B1B6813F4807F70
:1020E80000F0C680874B1B6A13F4407322D06268E5
:1020F80002F4407293421DD08248016A21F440766E
:102108004FF4803393FAA3F2B2FA82F27F4F3A4443
:1021180092004FF0010EC2F800E093FAA3F3B3FA6D
:1021280083F33B449B0000221A60066211F0010F02
:1021380040F0B380734A136A23F4407361680B4319
:102148001362002D40F0D580236813F0010F06D0EC
:102158006C4A136B23F00303A1680B4313632368D2
:1021680013F0020F06D0674A136B23F44033E1687B
:102178000B431363236813F0040F06D0614A136BF3
:1021880023F4402321690B431363236813F0200FC2
:1021980006D05C4A136B23F01003E1690B43136309
:1021A800236813F4003F06D0564A536823F480038B
:1021B800A16B0B435360236813F0400F06D0514ABC
:1021C800136B23F02003216A0B431363236813F076
:1021D800080F06D04B4A136B23F4401361690B4375
:1021E8001363236813F0100F06D0464A136B23F4C9
:1021F8004003A1690B431363236813F4007F06D0DF
:10220800404A536823F40003E16A0B435360236890
:1022180013F0800F06D03B4AD36A23F4F873616A3F
:102228000B43D362236813F4807F06D0354AD36A00
:1022380023F47853A16A0B43D362236813F4805FB5
:1022480006D0304A136B23F48073216B0B4313635E
:10225800236813F4005F53D02A4A136B23F40073E6
:10226800616B0B431363002003B0F0BD002533E717
:10227800254A136843F480731360FEF7A3FD0646EE
:10228800214B1B6813F4807F7FF42CAFFEF79AFD77
:10229800801B6428F4D90320E6E7FEF793FD064681
:1022A80015E0184B196A022393FAA3F3B3FA83F3E0
:1022B80003F01F03012202FA03F319427FF43AAF35
:1022C800FEF780FD801B41F28833984216D802231E
:1022D80093FAA3F293FAA3F3B3FA83F35B0943F0F7
:1022E8000203022BDDD0022393FAA3F3054B596AAC
:1022F800D9E7D36923F08053D36125E70320B3E7F7
:102308000020B1E7001002400070004000819010EA
:10231800022380F83D300368196A41F21112114214
:1023280008D1196A40F24442114203D11A6822F0D6
:1023380001021A60012380F83D30002070470268CE
:10234800D36843F00103D3600268136843F00103C4
:10235800136000207047704770477047704710B58A
:10236800044603681A6912F0020F11D0DA6812F0F5
:10237800020F0DD06FF002021A6101230377036880
:102388009B6913F0030F79D0FFF7E6FF002323774B
:1023980023681A6912F0040F12D0DA6812F0040FD9
:1023A8000ED06FF004021A610223237723689B6919
:1023B80013F4407F68D02046FFF7CEFF0023237731
:1023C80023681A6912F0080F12D0DA6812F0080FA1
:1023D8000ED06FF008021A61042323772368DB69A3
:1023E80013F0030F57D02046FFF7B6FF00232377DB
:1023F80023681A6912F0100F12D0DA6812F0100F61
:102408000ED06FF010021A61082323772368DB6966
:1024180013F4407F46D02046FFF79EFF0023237722
:1024280023681A6912F0010F03D0DA6812F0010F5D
:102438003FD123681A6912F0800F03D0DA6812F0CE
:10244800800F3DD123681A6912F4807F03D0DA68BF
:1024580012F0800F3BD123681A6912F0400F03D0A5
:10246800DA6812F0400F39D123681A6912F0200F88
:1024780003D0DA6812F0200F37D110BDFFF76BFFD9
:102488002046FFF76AFF81E72046FFF764FF2046F2
:10249800FFF763FF92E72046FFF75DFF2046FFF74F
:1024A8005CFFA3E72046FFF756FF2046FFF755FFDE
:1024B800B4E76FF001021A61204601F08DFCB8E71D
:1024C8006FF080021A61204600F0B3FBBAE76FF4A0
:1024D80080721A61204600F0ADFBBCE76FF0400245
:1024E8001A612046FFF73AFFBEE76FF020021A6133
:1024F800204600F09DFBC0E703682C4A90420ED0AE
:10250800B0F1804F0BD0A2F59432904207D002F57B
:102518008062904203D002F59632904203D123F0B4
:1025280070034A681343214A90421AD0B0F1804F91
:1025380017D0A2F59432904213D002F580629042EF
:102548000FD002F5963290420BD002F540629042CD
:1025580007D002F58062904203D002F58062904273
:1025680003D123F44073CA68134323F080034A69F4
:10257800134303608B68C3620B6883620B4B9842FA
:102588000FD003F5006398420BD003F540639842DF
:1025980007D003F58063984203D003F5806398421F
:1025A80001D10B690363012343617047002C01408B
:1025B800A8B110B5044690F83D305BB1022384F809
:1025C8003D30211D2068FFF797FF012384F83D3037
:1025D800002010BD80F83C3001F0E4FFEEE7012058
:1025E8007047A8B110B5044690F83D305BB102239E
:1025F80084F83D30211D2068FFF77EFF012384F811
:102608003D30002010BD80F83C3001F0F1FFEEE7CE
:1026180001207047002849D0F8B505460C4690F8C7
:102628003D30002B3DD0022385F83D30294651F836
:10263800042B936823F4803323F0070393602868FE
:10264800FFF75AFF286886688369026A21680E4383
:1026580023F4407323F00303A168A76941EA072123
:102668000B4323F47C4323F0FC03E168E76941EA68
:1026780007210B432769216A090341EA07110B4324
:1026880022F0AA026168646941EA04110A4386607B
:1026980029688B612B681A62012385F83D30002078
:1026A800F8BD80F83C3001F005FFBCE70120704719
:1026B80030B4036A23F001030362036A4468826941
:1026C80022F4803222F073020D682A4323F00203B9
:1026D8008D682B431C4DA8420FD005F50065A84214
:1026E8000BD005F54065A84207D005F58065A842DE
:1026F80003D005F58065A84205D123F00803CD680D
:102708002B4323F00403104DA8420FD005F50065B4
:10271800A8420BD005F54065A84207D005F58065AD
:10272800A84203D005F58065A84205D124F4407479
:102738004D692C438D692C43446082614A68426329
:10274800036230BC704700BF002C014030B4036AFC
:1027580023F010030362036A4468826922F08072DE
:1027680022F4E6420D6842EA052223F020038D6830
:1027780043EA0513184DA84225D005F50065A8427F
:1027880021D0154DA8420FD005F50065A8420BD001
:1027980005F54065A84207D005F58065A84203D035
:1027A80005F58065A84207D124F440644D6944EAE0
:1027B80085048D6944EA8504446082614A688263BD
:1027C800036230BC704723F08003CD6843EA0513E9
:1027D80023F04003D5E700BF002C014030B4036A62
:1027E80023F480730362036A4468C26922F4803266
:1027F80022F073020D682A4323F400738D6843EABC
:102808000523184DA84225D005F50065A84221D01A
:10281800144DA8420FD005F50065A8420BD005F568
:102828004065A84207D005F58065A84203D005F5A4
:102838008065A84207D124F440544D6944EA051440
:102848008D6944EA05144460C2614A68C263036240
:1028580030BC704723F40063CD6843EA052323F4B2
:102868008063D5E7002C014030B4036A23F4805319
:102878000362036A4468C26922F0807222F4E64265
:102888000D6842EA052223F400538D6843EA0533B4
:102898000F4DA8420FD005F50065A8420BD005F5ED
:1028A8004065A84207D005F58065A84203D005F524
:1028B8008065A84204D124F480444D6944EA851413
:1028C8004460C2614A680264036230BC704700BF5A
:1028D800002C014010B4012303FA01F4036A23EA2F
:1028E80004030362036A8A40134303625DF8044BDE
:1028F800704710B5044661B1042916D001220021A1
:102908000068FFF7E7FF012204212068FFF7E2FFD4
:1029180004E0012200210068FFF7DCFF2268136849
:1029280043F001031360002010BD01220421006858
:10293800FFF7D0FFF2E7000030B4036A23F48033D6
:102948000362036A4468426D22F4803222F0700206
:102958000D682A4323F400338D6843EA05430F4D7D
:10296800A8420FD005F50065A8420BD005F54065D3
:10297800A84207D005F58065A84203D005F5806513
:10298800A84204D124F480344D6944EA0524446003
:1029980042654A688265036230BC7047002C01407A
:1029A80030B4036A23F480130362036A4468426DF7
:1029B80022F0807222F4E0420D6842EA052223F4F4
:1029C80000138D6843EA05530F4DA8420FD005F553
:1029D8000065A8420BD005F54065A84207D005F56B
:1029E8008065A84203D005F58065A84204D124F487
:1029F80080244D6944EA8524446042654A68C2657A
:102A0800036230BC704700BF002C014038B590F815
:102A18003C30012B00F092800D460446012380F8DB
:102A28003C30022380F83D30142A1ED8DFE802F03B
:102A38000B1D1D1D241D1D1D381D1D1D4B1D1D1D80
:102A48005F1D1D1D72000068FFF732FE2268936942
:102A580043F0080393612268936923F004039361A8
:102A68002268936929690B439361012384F83D30F7
:102A7800002084F83C0038BD0068FFF767FE226834
:102A8800936943F4006393612268936923F4806334
:102A9800936122689369296943EA01239361E4E712
:102AA8000068FFF79BFE2268D36943F00803D361EF
:102AB8002268D36923F00403D3612268D3692969A2
:102AC8000B43D361D1E70068FFF7CEFE2268D369D4
:102AD80043F40063D3612268D36923F48063D3612C
:102AE8002268D369296943EA0123D361BDE70068F5
:102AF800FFF722FF2268536D43F0080353652268ED
:102B0800536D23F0040353652268536D29690B4301
:102B18005365AAE70068FFF743FF2268536D43F443
:102B2800006353652268536D23F4806353652268FC
:102B3800536D296943EA0123536596E7022038BD9E
:102B480090F83C30012B23D030B4012380F83C307E
:102B580004686368A2680F4DAC4214D005F500659F
:102B6800AC4210D023F070030D682B4322F0800292
:102B780089680A43636003689A60002380F83C30E0
:102B8800184630BC704723F470034D682B43E9E7BF
:102B980002207047002C014090F83C30012B42D0B5
:102BA80010B4012380F83C30CB6823F440738A6862
:102BB800134323F480634A68134323F400630A68C9
:102BC800134323F480530A69134323F400534A69D7
:102BD800134323F480438A6A134323F400431343C3
:102BE80023F470238A6943EA024302680F4CA24225
:102BF8000BD004F50064A24207D05364002380F888
:102C08003C3018465DF8044B704723F470034C6A57
:102C180043EA045323F08073CC69234323F0007301
:102C2800096A0B43E9E70220704700BF002C014006
:102C3800704770477047000038B5044683680269DA
:102C4800134342691343C269134301680A6822F4B3
:102C5800164222F00C0213430B600268536823F4F7
:102C68004053C1680B4353608369026A1343016888
:102C78008A6822F4306213438B600568904B9D424A
:102C88001FD0904B9D422FD08F4B9D4246D08F4BEB
:102C98009D425DD08E4B9D4274D01023E269B2F5FF
:102CA800004F00F08B80082B00F20781DFE813F05B
:102CB800CE00D900E4000501F00005010501050179
:102CC800FB0003F558431B6B03F00303032B09D8E0
:102CD800DFE803F0020406720123DFE70423DDE7DF
:102CE8000823DBE71023D9E703F5E6331B6B03F46E
:102CF8004033B3F5803F0BD007D9B3F5003F09D077
:102D0800B3F5403F08D10223C8E72BB90023C5E734
:102D18000423C3E70823C1E71023BFE703F5E4331F
:102D28001B6B03F44023B3F5802F0BD007D9B3F501
:102D3800002F09D0B3F5402F08D10223AEE72BB9F5
:102D48000023ABE70423A9E70823A7E71023A5E797
:102D580003F5E2331B6B03F44013B3F5801F0BD06C
:102D680007D9B3F5001F09D0B3F5401F08D10223D6
:102D780094E72BB9002391E704238FE708238DE715
:102D880010238BE703F5E0331B6B03F44003B3F523
:102D9800800F0BD007D9B3F5000F09D0B3F5400F5A
:102DA80008D102237AE72BB9002377E7042375E7D4
:102DB800082373E7102371E702236FE7082B42D833
:102DC800DFE803F0051722412D4141413800FFF7A4
:102DD8003FF96268530803EB4003B3FBF2F39BB27D
:102DE800002023F00F02C3F3420313432268D36089
:102DF80038BDFFF743F96268530803EB4003B3FBA0
:102E0800F2F39BB20020ECE76268530803F5740301
:102E180003F51053B3FBF2F39BB20020E1E7FFF791
:102E280009F86268530803EB4003B3FBF2F39BB263
:102E38000020D6E76268530803F58033B3FBF2F34A
:102E48009BB20020CDE701200023CAE7FFF700F975
:102E5800636800EB5300B0FBF3F080B2E860002039
:102E680038BDFFF70BF9636800EB5300B0FBF3F0D4
:102E780080B2E860002038BD6268530803F5F403A7
:102E880003F59053B3FBF2F39BB2EB60002038BD1F
:102E9800FEF7D0FF636800EB5300B0FBF3F080B29D
:102EA800E860002038BD6268530803F50043B3FBAF
:102EB800F2F39BB2EB60002038BD012038BD00BFA3
:102EC800003801400044004000480040004C0040E9
:102ED80000500040436A13F0010F06D0026853689F
:102EE80023F40033816A0B435360436A13F0020FE3
:102EF80006D00268536823F48033C16A0B435360D9
:102F0800436A13F0040F06D00268536823F4802341
:102F1800016B0B435360436A13F0080F06D0026835
:102F2800536823F40043416B0B435360436A13F027
:102F3800100F06D00268936823F48053816B0B430B
:102F48009360436A13F0200F06D00268936823F455
:102F58000053C16B0B439360436A13F0400F0AD0D0
:102F68000268536823F48013016C0B435360036CAD
:102F7800B3F5801F0BD0436A13F0800F06D00268A8
:102F8800536823F40023816C0B4353607047026835
:102F9800536823F4C003416C0B435360EBE72DE9FE
:102FA800F04105460F4616469846069C2B68DB6995
:102FB80037EA03030CBF01230023B3421ED1B4F147
:102FC800FF3FF3D02CB1FDF7FDFEA0EB08008442D3
:102FD800ECD22A68136823F4D07313602A689368C4
:102FE80023F001039360202385F8693085F86A305F
:102FF800002385F868300320BDE8F0810020BDE893
:10300800F0812DE9F04182B01E4690F86930DBB2BC
:10301800202B04D00223184602B0BDE8F0810446F4
:103028000D46904600294ED0002A4ED090F86830C0
:10303800012B01D10223EEE7012380F86830002339
:10304800C366212380F86930FDF7BCFE0746A4F863
:103058005080A4F8528003E023682A781A85013545
:10306800B4F852309BB2E3B1B4F852309BB2013B92
:103078009BB2A4F8523000963B460022802120469D
:10308800FFF78DFF18BBA368B3F5805FE4D1236910
:10309800002BE1D1226835F8023BC3F308031385FE
:1030A800DEE700963B46002240212046FFF777FFE7
:1030B800034608B10323AEE7202284F869200022E2
:1030C80084F86820A7E70123A5E70123A3E70323E2
:1030D800A1E730B583B004460023C366FDF772FE4E
:1030E800054623681B6813F0080F0ED123681B6878
:1030F80013F0040F17D1202384F8693084F86A305C
:10310800002084F8680003B030BD6FF07E43009360
:10311800034600224FF400112046FFF740FF002825
:10312800E4D00320EFE76FF07E4300932B460022A4
:103138004FF480012046FFF732FF0028DBD0032040
:10314800E1E778B310B5044690F869300BB324234F
:1031580084F869302268136823F00103136020465D
:10316800FFF76AFD01281FD0636ABBB9226853685C
:1031780023F4904353602268936823F02A039360F2
:103188002268136843F0010313602046FFF7A1FF8C
:1031980010BD80F8683001F081FAD8E72046FFF7C3
:1031A80099FEE3E70120704710BD02238362704750
:1031B800704710B58AB00023059306930122079241
:1031C8004FF6E0740294039349010091019304922D
:1031D80008920E2309936946FDF7A0FE0AB010BDB8
:1031E80010B50446FFF7E1FF204610BD10B50446B0
:1031F800FFF7DEFF204610BD70B5064604460D46B3
:103208000FCD0FC40FCD0FC495E8030084E8030069
:103218003046FDF701FF70BD30B58BB00546002084
:1032280008908DF824008DF820200246032A09DC36
:10323800501C9C5C0DF1280E704400F8084C0132BB
:10324800D2B2F3E702910523069300230393059373
:1032580004938DF81C3001AB08AA02A92846FDF793
:1032680009FF10B901200BB030BD0AAC54F8241D79
:103278002846FDF774FF234608AA02A92846FDF749
:10328800F9FE08B90120EEE70020ECE700B583B0AD
:10329800130E8DF80430C2F307438DF80530C2F3DE
:1032A80007238DF806308DF8072001AB0022FFF7C1
:1032B800B3FF03B05DF804FB0346FA220270AF22A5
:1032C800427001228270002242608260C260026104
:1032D80042618261C2610262426200F12C0203C94A
:1032E80082E803001846704770B50646C469056A47
:1032F80000E00C34A54205D020680028F9D001F080
:1033080061FBF6E7F06908B101F05CFB306908B1D0
:1033180001F058FB706808B101F054FB304670BDED
:103328008162704770472DE9F84383680768DB1BA3
:1033380099421AD90E460446D0F80490A9EB07081A
:10334800A9B900253846FFF7EDFF07464846FFF7BD
:10335800E9FFC21B10D1206808B101F033FB2560DA
:1033680005EB080363603544A560BDE8F8830846AB
:1033780001F009FB0546E5E73946284601F0C5FD99
:10338800E9E700002DE9F04182B00123009342688B
:103398000368D31AB3F1FF3F2DD005460F460193BA
:1033A80063BB69460C681C442B68D21A944201D24C
:1033B8004FF0FF3424BB00266B682A689B1A3A78C2
:1033C800DE4200D0F2546F682868FFF7ABFF8046F2
:1033D8003846FFF7A7FFB0EB080716D13744013787
:1033E800286808B101F0EEFA2E606F603444AC60D2
:1033F80002B0BDE8F081084801F0E9FA01A9D1E777
:10340800204601F0C0FA0646D6E73A46414630461D
:1034180001F07BFDE2E700BFAC5100082DE9F04167
:1034280082B00123009342680368D31AB3F1FF3FC7
:103438002DD005460F46019363BB69460C681C44B2
:103448002B68D21A944201D24FF0FF3424BB0026D5
:103458006B682A689B1A3A78DE4200D0F2546F688B
:103468002868FFF75FFF80463846FFF75BFFB0EB41
:10347800080716D137440137286808B101F0A2FAC5
:103488002E606F603444AC6002B0BDE8F08108483B
:1034980001F09DFA01A9D1E7204601F074FA064629
:1034A800D6E73A464146304601F02FFDE2E700BF35
:1034B800AC51000808B543688268934206D00A7880
:1034C80003B11A7043680133436008BDFFF7A6FFD4
:1034D80008BD0000F0B589B004461D468DF80710F8
:1034E8008DF80620002304930593069369682B68DA
:1034F800C91A083104A8FFF716FF059B069A9342DC
:1035080040D0227803B11A70059B01330593611CE2
:10351800059B069A93423AD0627803B11A70059BCC
:1035280001330593059B069A934234D09DF80720F2
:1035380003B11A70059B0133059308A9002301F80C
:10354800043D04A8FFF7B6FF059B069A934228D0CE
:103558009DF8062003B11A70059B013305936B682B
:103568002A689B1A08A901F8033D04A8FFF7A2FFDF
:1035780008A9012301F8023D04A8FFF79BFF2B6867
:103588006E6818E0214604A8FFF7FCFEBFE704A810
:10359800FFF7F8FEC6E70DF1070104A8FFF7F2FEF2
:1035A800CBE70DF1060104A8FFF7ECFED7E7059B72
:1035B800013305936B1C1D469E4212D01B788DF873
:1035C8000F30059B069A934205D09DF80F20002BDB
:1035D800EDD01A70EBE70DF10F0104A8FFF7D2FE4A
:1035E800E8E708A9002301F8013D04A8FFF762FFF6
:1035F800022305980499421A551EAB420ED29342F3
:1036080008D2CA5C10F8011C4A4000F8012C0133AA
:10361800DBB2EEE719460A4801F0DCF9E36A208ECE
:103628009861642392B2A06AFFF7EBFCE26A238EEA
:103638001B049361049808B101F0C4F909B0F0BD06
:10364800C851000838B505460C464B688A6893424D
:103658000ED0827803B11A70636801336360234621
:103668002422FF212846FFF735FF2368636038BD11
:10367800811C2046FFF786FEF1E730B583B005468A
:103688000C4602A9102301F8023D2046FFF712FF5D
:1036980002A9002301F8013D2046FFF70BFF23464E
:1036A8001E2206212846FFF715FF2368636003B032
:1036B80030BD70472DE9F0438DB00024079408947D
:1036C80009940A940B944F4B5A6942F400125A61B8
:1036D8005A6902F400120192019A5A6942F480026E
:1036E8005A615A6902F480020292029A5A6942F4B3
:1036F80000225A615A6902F400220392039A5A6915
:1037080042F400325A615A6902F400320492049A6F
:103718005A6942F480225A615A6902F48022059259
:10372800059A5A6942F480125A615B6903F480135E
:103738000693069BDFF8E08022464FF4704140462E
:10374800FEF75BF8304F22464FF47F413846FEF7CC
:1037580054F82E4D22464FF470712846FEF74DF866
:103768004FF4806307932A4E08960994DFF8AC90CB
:1037780007A94846FDF76AFF0E23079308960994A0
:1037880007A92846FDF762FF10230793A6F58016C0
:103798000896099407A94846FDF758FFE0230793C0
:1037A8000896099407A94FF09040FDF74FFF4FF492
:1037B800807307930896099407A91648FDF746FFF2
:1037C8004FF4704307930126089609940A9407A9B1
:1037D8004046FDF73BFF4FF47F4307930896099453
:1037E8000A9407A93846FDF731FF4FF47073079321
:1037F800089609940A9407A92846FDF727FF0DB0F3
:10380800BDE8F08300100240000C004800080048A2
:10381800000021100010004800040048001400486F
:1038280008B50C480C4B03600523436000238360F4
:10383800C3604FF4003202614FF480124261037694
:1038480043768376C376037701234377FDF7C0FA7F
:1038580008BD00BF940000200064004030B58DB062
:103868002422002103A801F06AFB00250095019598
:1038780002950E4C0E4BA362E56225634FF6FF736B
:103888006363A563E56325640123039305930993A3
:10389800283403A92046FEF7BDFE00950195029540
:1038A80069462046FFF74CF90DB030BD9400002062
:1038B800002C014030B58DB02422002103A801F06E
:1038C8003EFB00250095019502950E4C4FF0804374
:1038D800A366E56625674FF6FF736367A567C4F8B7
:1038E80080500123039305930993683403A9204664
:1038F800FEF790FE0095029569462046FFF720F9ED
:103908000DB030BD9400002030B58DB024220021C8
:1039180003A801F014FB0025009501950295104CB1
:10392800104BC4F8A830C4F8AC50C4F8B0504FF6E7
:10393800FF73C4F8B430C4F8B850C4F8C0500123B9
:10394800039305930993A83403A92046FEF762FE62
:103958000095029569462046FFF7F2F80DB030BD94
:10396800940000200004004030B597B00024139460
:10397800149415940C940D940E940F94109411941F
:1039880012942C22214601A801F0D9FA244D254B86
:10399800C5F8E830C5F8EC40C5F8F040C5F8F44083
:1039A800C5F8F840C5F8FC40C5F80041E835284698
:1039B800FEF717FE13941494159413A92846FFF7DD
:1039C800BFF860230C930D940E940F9410941194E7
:1039D800129404220CA92846FFF718F808220CA90B
:1039E8002846FFF713F80C220CA92846FFF70EF813
:1039F800019402940394049405944FF4005306939D
:103A0800079408944FF0007309930A940B9401A942
:103A18002846FFF7C1F8284600F000FE17B030BD71
:103A2800940000200034014008B50F480F4BC0F83F
:103A380028314FF4E133C0F82C310023C0F830317D
:103A4800C0F83431C0F838310C22C0F83C21C0F835
:103A58004031C0F84431C0F84831C0F84C3100F565
:103A68009470FFF76EFB08BD9400002000440040EE
:103A780008B50F480F4BC0F898314FF4E133C0F840
:103A88009C310023C0F8A031C0F8A431C0F8A83197
:103A98000C22C0F8AC21C0F8B031C0F8B431C0F87D
:103AA800B831C0F8BC3100F5CC70FFF74AFB08BD4F
:103AB800940000200048004008B50F480F4BC0F89C
:103AC80008324FF4E133C0F80C320023C0F810324A
:103AD800C0F81432C0F818320C22C0F81C22C0F802
:103AE8002032C0F82432C0F82832C0F82C3200F551
:103AF8000270FFF726FB08BD940000200038014043
:103B080030B585B000250195029503950E4C0F4BF5
:103B1800C4F8783241F64B53C4F87C32C4F880526A
:103B28004FF4FA53C4F88432C4F8905204F51E7462
:103B38002046FEF73DFD0195039501A92046FEF7B5
:103B4800FFFF05B030BD00BF94000020001000400A
:103B580030B585B000250195029503950D4C0E4BA7
:103B6800C4F8B8324A23C4F8BC32C4F8C05250234F
:103B7800C4F8C432C4F8D05204F52E742046FEF7B7
:103B880017FD0195039501A92046FEF7D9FF05B059
:103B980030BD00BF940000200014004008B500228A
:103BA80007213720FDF7FAFC3720FDF729FD002211
:103BB80011461520FDF7F2FC1520FDF721FD002226
:103BC80011460720FDF7EAFC0720FDF719FD002242
:103BD80011460820FDF7E2FC0820FDF711FD002240
:103BE80011460920FDF7DAFC0920FDF709FD00223E
:103BF80011460A20FDF7D2FC0A20FDF701FD00223C
:103C080011461720FDF7CAFC1720FDF7F9FC002222
:103C180011462820FDF7C2FC2820FDF7F1FC002200
:103C280011463620FDF7BAFC3620FDF7E9FC08BD41
:103C3800012800D070474FF6FF739942FAD12DE959
:103C4800F04383B03E4CDFF81891C4F8F8924FF473
:103C58008053A4F8FC323B4D3B4E2A46314604F5CE
:103C68003E7000F0A1FEDFF8FC80C4F80083022358
:103C7800A4F8043304F540772A463146384600F064
:103C880093FEC4F808934FF48043A4F80C332A46F3
:103C9800314604F5427000F087FEC4F8108304230F
:103CA800A4F814332A46314604F5447000F07CFE2B
:103CB800C4F818830823A4F81C332A46314604F5AF
:103CC800467000F071FE97E803008DE8030004F5E4
:103CD800487769463846FFF7EFFA2A461B493846BF
:103CE80000F062FE04F555763046FFF779FA2A4669
:103CF8001749304600F058FE04F5607839464046CA
:103D080000F0EDFA2A461349404600F04DFE04F54E
:103D180061773146384600F0FCFA2A460E493846A3
:103D280000F042FE04F567742046FFF73EFA2A4683
:103D38000A49204600F038FE03B0BDE8F08300BF12
:103D48009400002000000020BB360008F132000873
:103D5800F5310008EB4200082B430008B931000890
:103D6800000400480008004830B59FB02822002110
:103D780014A801F0E4F800240F94109411941294FC
:103D880013943C222146684601F0D9F8022514957F
:103D980001231893102319931B954FF450131D9367
:103DA80014A8FDF73DFD0F230F93109511944FF4C0
:103DB80080631293139429460FA8FEF773F843F211
:103DC800070300930294039404940C940D9468469A
:103DD800FEF76AF91FB030BD30B583B00446444BD6
:103DE800984204D0434B9C4237D003B030BDA3F572
:103DF8001E7393F8C833D3B13F4B93F8C933022BE2
:103E08001ED0032BEED13C4D05F5427292E803001B
:103E18008DE80300694605F5607000F067FA002335
:103E280085F8CA3305F51E70FEF772FADAE73248EC
:103E3800012380F8C83300F51E70FEF769FAD1E750
:103E48002D4D05F5607000F0C8FA002385F8CA33D7
:103E580005F51E70FEF75CFAC4E7A3F52E7393F818
:103E6800CB33A3B1244B93F8CC33062B18D0072BB4
:103E780025D0082BB9D1204C6FF01802152104F574
:103E88005570FFF703FA002384F8CA33ADE71A48E0
:103E9800012380F8CB3300F52E70FEF739FAA4E73A
:103EA800154C4122152104F55570FFF7EFF9002351
:103EB80084F8CA3304F52E70FEF72AFA95E70E4CFB
:103EC800DFED0E0A94EDF40A04F5617000F02AFAA9
:103ED80084EDF50A4122152104F55570FFF7D6F94E
:103EE800002384F8CA3304F52E70FEF711FA7CE734
:103EF8000C0300204C030020940000200000000068
:103F080010B5022802D004281CD010BD04211B487B
:103F1800FDF76CFC01280AD004211848FDF766FC5F
:103F28000128F2D10022164B83F8D82310BD144C77
:103F38000022152104F55570FFF7A8F9012384F82C
:103F4800D83310BD08210D48FDF750FC01280AD0D0
:103F580008210A48FDF74AFC0028D6D10022084B60
:103F680083F8D923D1E7064C0022152104F55570B2
:103F7800FFF78CF9012384F8D93310BD00080048F5
:103F880094000020F8B51C4B93F8D8333BBB1A4B70
:103F980093F8D9334BBB4FF080456B6A1BB207EEE1
:103FA800903AF8EEE77A144CC4EDF77A17EE900AD7
:103FB800FCF780FA0022114BFCF7D0FA06460F46B0
:103FC800D4F8D003FCF776FA32463B46FCF714F9EE
:103FD800FCF7D6FCC4F8D00300236B62F8BD0022BE
:103FE80015210748FFF752F9D5E7002215210448A3
:103FF800FFF74CF9CFE700BF940000200000303FE6
:10400800E803002070472DE9F04104460F464B684D
:104018000D6800220260426082605D1B14D1002698
:10402800266066603544A560D7F804803868FFF7D5
:10403800E9FF05464046FFF7E5FF471B09D13E4427
:1040480066602046BDE8F081284600F09CFC0646E4
:10405800E6E73A462946304600F057FFEFE700000A
:1040680000B587B0FCF790FEFFF77EFEFFF722FB56
:10407800FFF7D6FBFFF7F2FBFFF71CFCFFF744FC4A
:10408800FFF772FCFFF7D0FCFFF7F2FCFFF714FD17
:10409800FFF736FDFFF75CFDFFF780FD2C4E102380
:1040A800C6F8C43306F5677435460FCD0FC40FCD77
:1040B8000FC495E8030084E8030006F567742046FA
:1040C800FCF7AAFF01212046FFF773F8D6F8C413BE
:1040D8002046FDF706F92046FCF79EFF314606F517
:1040E8005570FFF789F806F5487406F5947120466F
:1040F800FFF716F906F549716846FFF784FF694628
:104108002046FFF79FFA009808B100F05BFC1149C0
:1041180003A8FFF778FF03A90F48FFF7AEFA039843
:1041280008B100F04FFC0A4C04F16805002128464C
:10413800FEF7DFFB04212846FEF7DBFB04F51E70C3
:10414800FEF7FDF804F52E70FEF7F9F8FEE700BF5C
:1041580094000020B8030020B40300205B4B93F8C0
:10416800CA3303B1704730B591B0584C04F5787331
:1041780004AA0121FDF71BF8012384F8CA3394F837
:10418800E01304F5607000F0B6F8054694F8E11302
:1041980004F5617000F0F2F80446102D10D8DFE83D
:1041A80005F0091C303D0F0F0F0F0F0F0F0F0F0FEA
:1041B8000F0F5200454B002283F8C92383F8CA2306
:1041C800102C65D8DFE804F05A666F78646464647C
:1041D80064646464646464645A003C4D012385F833
:1041E800C9330BAB05F53E7292E8030083E8030080
:1041F800194605F5607000F075F8002385F8CA3394
:10420800DEE7324D022385F8C93305F5607000F00A
:10421800C3F805F51E70FEF792F8D1E72B4D03237E
:1042280085F8C9330DAB05F5427292E8030083E8BF
:104238000300194605F5607000F054F805F51E7086
:10424800FEF77DF8BCE7214D042385F8C933002328
:1042580001930293039310A901F8013D01A8FFF708
:1042680029F901AB2422FF2105F54870FFF732F93F
:1042780001980028A4D000F0A5FBA1E71348052366
:1042880080F8CC330022152100F55570FEF7FEFFAB
:1042980011B030BD0D48062380F8CC3300F52E70E0
:1042A800FEF74DF8F4E70948072380F8CC3300F50A
:1042B8002E70FEF744F8EBE70448082380F8CC3367
:1042C80000F52E70FEF73BF8E2E700BF94000020EF
:1042D80008B54FF6FF710120FFF7AAFC08BD016081
:1042E800704770470B688A889A6170470A688B889C
:1042F8001B0493617047022905D0032905D00129C1
:1043080005D0002070470220704703207047012025
:1043180070470160002242608260C26002614261AF
:104328007047704790ED027A80ED017A70EEC00A0E
:10433800C0ED020A9FED0E0A20EE800A80ED030A06
:10434800DFED0C7A60EEA77AD0ED046A77EEA67AF4
:10435800C0ED047A70EEC70A9FED077A60EE870A0F
:10436800C0ED050A30EE270A30EE800A704700BF1C
:104378009A99993ECDCC4C3ECDCCCC3D022905D066
:10438800032905D0012905D0002070470220704775
:10439800032070470120704710B584B004460023FD
:1043A80000930193029304A9842301F8023D68460F
:1043B800FFF780F804A9032301F8013D6846FFF7D9
:1043C80079F86B461E2206212068FFF783F80098CB
:1043D80008B100F0F7FA04B010BD10B584B0044677
:1043E800002300930193029304A97C2301F8023D62
:1043F8006846FFF75FF804A9FC2301F8013D684609
:10440800FFF758F86B461E2206212068FFF762F86E
:10441800009808B100F0D6FA04B010BD82B00A4B7B
:104428009A6942F001029A619A6902F001020092C7
:10443800009ADA6942F08052DA61DB6903F080534E
:104448000193019B02B070470010024000B589B08B
:104458000023039304930593069307930268144B70
:104468009A4202D009B05DF804FB03F5D633DA6945
:1044780042F00072DA61DA6902F000720192019A80
:104488005A6942F400325A615B6903F400330293BB
:10449800029B4FF4C0530393022304930323069310
:1044A8000923079303A94FF09040FDF7CFF8D9E708
:1044B8000064004000B58DB000230793089309936A
:1044C8000A930B930368334A934208D0B3F1804FA1
:1044D80023D0314A934240D00DB05DF804FB2F4BF6
:1044E8009A6942F400629A619A6902F40062019240
:1044F800019A5A6942F400125A615B6903F4001385
:104508000293029B4FF420630793022308930B93B3
:1045180007A92348FDF79AF8DEE703F50433DA69BB
:1045280042F00102DA61DA6902F001020392039AA9
:104538005A6942F400325A615B6903F40033049308
:10454800049B032307930223089301230B9307A9D2
:104558004FF09040FDF77AF8BEE7104BDA6942F069
:104568000202DA61DA6902F002020592059A5A69D2
:1045780042F400125A615B6903F400130693069B28
:104588000C230793022308930B9307A90448FDF70C
:104598005DF8A1E7002C0140000400400010024033
:1045A8000010004882B003680E4A934204D00E4AB5
:1045B80093420CD002B070470C4BDA6942F01002FB
:1045C800DA61DB6903F010030093009BF2E7074B05
:1045D800DA6942F02002DA61DB6903F02003019313
:1045E800019BE7E700100040001400400010024063
:1045F8000268094B9A4200D0704782B003F55C43C9
:104608009A6942F400529A619B6903F4005301933A
:10461800019B02B0F0E700BF0034014010B588B03C
:104628000023039304930593069307930268184B9A
:104638009A4201D008B010BD03F55C435A6942F4B0
:1046480080125A615A6902F480120192019A5A69D9
:1046580042F480225A615B6903F480230293029B2F
:104668000224039404940423079303A90948FCF73C
:10467800EDFF4FF4407303930494002305930693CE
:104688000A23079303A90448FCF7E0FFD2E700BF19
:1046980000340140000C00480004004870B58CB09C
:1046A80000230793089309930A930B930368414ADD
:1046B800934207D0404A934224D0404A934242D082
:1046C8000CB070BD3E4B9A6942F480429A619A6977
:1046D80002F480420092009A5A6942F400225A6118
:1046E8005B6903F400230193019B302307930223A2
:1046F800089303230A9307230B9307A93148FCF770
:10470800A5FFDDE72E4BDA6942F40032DA61DA6997
:1047180002F400320292029A5A6942F400325A6153
:104728005B6903F400330393039B0C230793022371
:10473800089303230A9307230B9307A94FF090408C
:10474800FCF784FFBCE71E4BDA6942F48022DA6189
:10475800DA6902F480220492049A5A6942F4001237
:104768005A615A6902F400120592059A5A6942F48C
:1047780080225A615B6903F480230693069B4FF4F9
:10478800004307930226089603250A9507240B94ED
:1047980007A90D48FCF75AFF4FF480630793089662
:1047A800002309930A950B9407A90848FCF74EFFC4
:1047B80086E700BF00380140004400400048004040
:1047C800001002400008004800100048000400489B
:1047D8007047FEE7FEE7FEE7FEE770477047704761
:1047E80008B5FCF7E3FAFCF72DFF08BD08B5022071
:1047F800FDF708F808BD08B50420FDF703F808BD63
:1048080008B50820FCF7FEFF08BD08B51020FCF726
:10481800F9FF08BD08B50248FCF781FD08BD00BFD7
:104828009400002008B52020FCF7ECFF4020FCF79E
:10483800E9FF8020FCF7E6FF4FF48070FCF7E2FF09
:1048480008BD08B54FF48060FCF7DCFF08BD000028
:1048580008B50248FDF783FD08BD00BF0C03002022
:1048680008B50248FDF77BFD08BD00BF4C030020DA
:104878000120704708B500F003FB162303604FF0D2
:10488800FF3008BD08B54FF0FF31FFF7F3FFFEE733
:1048980008B503460B4A126842B10A4A1068034435
:1048A8006A46934206D8074A136008BD0649054A76
:1048B8001160F2E700F0E4FA0C2303604FF0FF30D8
:1048C80008BD00BF7C040020380500201549D1F838
:1048D800883043F47003C1F88830134B1A6842F0EB
:1048E80001021A605868114A02405A601A6822F098
:1048F800847222F480321A601A6822F480221A60C4
:104908005A6822F4FE025A60DA6A22F00F02DA626A
:10491800186B074A02401A6300229A604FF000633E
:104928008B60704700ED00E0001002400CC07FF87B
:10493800CCFC00FFDFF834D0002103E00C4B5B58BF
:10494800435004310B480C4B42189A42F6D30B4A99
:1049580002E0002342F8043B094B9A42F9D3FFF7DF
:10496800B5FF00F093FAFFF77BFBFEE700A00020FD
:1049780088530008000000207800002078000020FC
:1049880038050020FEE710B5002814BF04460124AE
:10499800204600F09FFA30B900F00CF808B900F092
:1049A80059FA8047F4E710BD0B460146184600F057
:1049B80059BA0000024B1868BFF35B8F704700BFFD
:1049C8008404002000F08EBA08B500F043FA08B558
:1049D80000F040FA0FB480B582B000AF07F11004C0
:1049E80054F8045B2846FCF7A3F900F20E2323F0E1
:1049F8000703ADEB030D00F5007123462A46684610
:104A08007C6000F04FF800F025FA000080B59CB0FB
:104A180000AF0E1A80466C220E49381D00F06AFA63
:104A280006F17A0323F00703ADEB030D6B22391D62
:104A3800751C684600F05EFA6D44324641460DF139
:104A48006B0000F057FA002385F86A306846FFF7D4
:104A5800BBFF00BF145200082DE9F04184B004AF39
:104A680088B001230293022301930D4B1B68009326
:104A7800064600230AA8884600F054F8404504ADCD
:104A880004460AD8C0F1180102462944304600F00D
:104A980031FA2046BD46BDE8F0814FF0FF34F8E713
:104AA8001000002001392DE9F04106461546471847
:104AB80004462A7892B3BC422CD2252A07D16A78B8
:104AC800732A09D07A2A12D0252A00D101352A78EA
:104AD800227001350134ECE7191D1B68013B13F8FE
:104AE800012FA2B1BC4215D004F8012BF7E7AA7830
:104AF800752AECD11A68391B204603F10408FFF720
:104B0800ABFF002806DD044403354346D1E70235F0
:104B18000B46CEE721463046FFF778FF2270A01BF0
:104B2800BDE8F0812DE9F04114469DF82020069F4C
:104B38001D468046079BCAB10646204629460A22DA
:104B48000023FBF76DFF3A442046137906F8013D30
:104B5800294600230A22FBF763FF04460D4654EA60
:104B68000503EAD1A8EB0600BDE8F08103F04A028C
:104B7800402A10D1064604F007033B44EA081B7993
:104B880006F8013DE30843EA45731C46154654EA16
:104B98000503F0D1E6E713F4804F14BF1423042370
:104BA80006461F4404F00F032A09FB5C06F8013D82
:104BB800230943EA05731C46154654EA0503F1D157
:104BC800D0E70000244B1A68D0075CBF01221A60A6
:104BD800224B1A68D1075CBF01221A60204B1A6861
:104BE800D2075CBF01221A601E4B1A68D0075CBF4F
:104BF80001221A601C4B1A68D1075CBF01221A6097
:104C08001A4B1A68D2075CBF01221A60184B1A683F
:104C1800D0075CBF01221A60164B1A68D1075CBF27
:104C280001221A60144B1A68D2075CBF01221A606D
:104C3800124B1A68D0075CBF01221A60104B1A6821
:104C4800D1075CBF01221A600E4B1A68D2075CBFFD
:104C580001221A60704700BFB4040020B00400208D
:104C6800AC040020A8040020A4040020A004002014
:104C78009C04002098040020940400209004002044
:104C88008C04002088040020244B1A68D0075CBFDD
:104C980001221A60224B1A68D1075CBF01221A60F0
:104CA800204B1A68D2075CBF01221A601E4B1A6893
:104CB800D0075CBF01221A601C4B1A68D1075CBF81
:104CC80001221A601A4B1A68D2075CBF01221A60C7
:104CD800184B1A68D0075CBF01221A60164B1A6875
:104CE800D1075CBF01221A60144B1A68D2075CBF57
:104CF80001221A60124B1A68D0075CBF01221A60A1
:104D0800104B1A68D1075CBF01221A600E4B1A6853
:104D1800D2075CBF01221A60704700BFE40400207C
:104D2800E0040020DC040020D8040020D404002083
:104D3800D0040020CC040020C8040020C4040020B3
:104D4800C0040020BC040020B8040020184B1A68D6
:104D5800D1075CBF01221A60164B1A68D2075CBFE4
:104D680001221A60144B1A68D0075CBF01221A602E
:104D7800124B1A68D1075CBF01221A60104B1A68DF
:104D8800D2075CBF01221A600E4B1A68D0075CBFBD
:104D980001221A600C4B1A68D1075CBF01221A6005
:104DA8000A4B1A68D2075CBF01221A60704700BF1D
:104DB8000405002000050020FC040020F804002061
:104DC800F4040020F0040020EC040020E804002093
:104DD800184B1A68D1075CBF01221A60164B1A6873
:104DE800D2075CBF01221A60144B1A68D0075CBF57
:104DF80001221A60124B1A68D1075CBF01221A609F
:104E0800104B1A68D2075CBF01221A600E4B1A6851
:104E1800D0075CBF01221A600C4B1A68D1075CBF2F
:104E280001221A600A4B1A68D2075CBF01221A6075
:104E3800704700BF24050020200500201C05002025
:104E48001805002014050020100500200C0500207E
:104E58000805002008B5062000F05EF90120FFF7DC
:104E680011FD000010B5054C13462CB10A46014649
:104E78000220AFF3008010BD204610BD00000000E6
:104E8800014B1868704700BF1400002070B50D4E24
:104E98000D4CA41BA4100025A54209D10B4E0C4CA7
:104EA80000F058F9A41BA4100025A54205D170BD37
:104EB80056F8253098470135EEE756F825309847DB
:104EC8000135F2E76C5300086C5300086C53000876
:104ED80084530008024B0146186800F087B800BFE9
:104EE80014000020024B0146186800F031B800BFDA
:104EF8001400002010B5431E0A44914200D110BD91
:104F080011F8014B03F8014FF7E7884210B501EBA0
:104F1800020303D8421E99420CD110BD9842F9D21F
:104F28008118D21AD34200D110BD13F8014D01F8EF
:104F3800014DF7E711F8014B02F8014FEBE7024486
:104F48000346934200D1704703F8011BF9E70000BC
:104F580038B50546002945D051F8043C0C1F002BF4
:104F6800B8BFE41800F0F4F81F4A1368104633B9C4
:104F7800636014602846BDE8384000F0EAB8A342F0
:104F88000CD921686218934204BF1A685B68636091
:104F980004BF521822600460ECE713465A680AB14D
:104FA800A242FAD919685818A0420BD120680144C6
:104FB800581882421960DDD1106852685A6001445D
:104FC8001960D7E702D90C232B60D3E72068211892
:104FD8008A4204BF11685268626004BF09182160E0
:104FE8005C60C7E738BD00BF2805002070B5CD1C40
:104FF80025F0030508350C2D38BF0C25002D064675
:1050080001DBA94203D90C233360002070BD00F0F6
:105018009FF8234A1468214691B9224C23681BB98A
:10502800304600F041F820602946304600F03CF850
:10503800431C26D10C233360304600F08AF8E4E79D
:105048000B685B1B1AD40B2B0FD90B60CD50CC18F7
:10505800304600F07EF804F10B00231D20F0070015
:10506800C31A1BD05A42E25070BD8C420DBF636810
:105078004B686360136018BF0C46E9E70C46496843
:10508800CAE7C41C24F00304A04205D0211A304604
:1050980000F00AF80130CDD02560D9E770BD00BF17
:1050A800280500202C05002038B5064C00230546AD
:1050B80008462360FFF7ECFB431C02D1236803B1C9
:1050C8002B6038BD340500201F2938B504460D462D
:1050D80004D9162303604FF0FF3038BD426C12B17B
:1050E80052F821304BB9204600F030F82A460146E4
:1050F8002046BDE8384000F017B8012B0AD0591CEB
:1051080003D116230360012038BD002442F825404E
:1051180028469847002038BD024B01461868FFF71B
:10512800D3BF00BF1400002038B5074C0023054644
:10513800084611462360FFF79DFB431C02D12368F4
:1051480003B12B6038BD00BF34050020FFF790BBCA
:1051580070477047F8B500BFF8BC08BC9E4670475A
:0C516800F8B500BFF8BC08BC9E467047BC
:1051740002030405060708090A0B0C0D0E0F101094
:105184000102030405060708090A0B0C0D0E0F1093
:1051940000000000000000000102030406070809E3
:1051A4000000000001020304766563746F723A3AEA
:1051B4005F4D5F656D706C6163655F6261636B5FBA
:1051C40061757800766563746F723A3A5F4D5F7209
:1051D400616E67655F636865636B3A205F5F6E202D
:1051E40028776869636820697320257A7529203EC9
:1051F4003D20746869732D3E73697A6528292028D7
:10520400776869636820697320257A75290000002E
:105214006E6F7420656E6F75676820737061636567
:1052240020666F7220666F726D617420657870619C
:105234006E73696F6E2028506C6561736520737599
:10524400626D69742066756C6C2062756720726586
:10525400706F727420617420687474703A2F2F67B1
:1052640063632E676E752E6F72672F627567732E78
:1052740068746D6C293A0A20202020002D2B785860
:1052840030313233343536373839616263646566B8
:105294003031323334353637383941424344454668
:1052A400002D2B7858303132333435363738396164
:1052B4006263646566414243444546002D303132A1
:1052C4003334353637383900474D54004853540089
:1052D400414B535400505354004D535400435354C2
:1052E4000045535400415354004E53540043455415
:1052F4000049535400454554004A535400000000EB
:105304000000000000000000000000000000000099
:105314000000000000000000000000000000000089
:105324000000000000000000000000000000000079
:105334000000000000000000000000000000000069
:105344000000000000000000000000000000000059
:105354000000000000000000000000000000000049
:08536400F4B6FF7F0100000018
:10536C00AD010008D9420008CD4B0008914C000853
:08537C00554D0008D94D000851
:045384008901000893
:1053880000000000010000001000000000127A0078
:105398008052000818000020000000002453000874
:1053A80044530008045300080000000000000000F7
:1053B80000000000000000000000000000000000E5
:1053C80000000000000000000000000000000000D5
:1053D80000000000000000000000000000000000C5
:1053E80000000000000000000000000000000000B5
:0853F8000000000000000000AD
:040000050800493D69
:00000001FF
